{
  "contractName": "SmartContractCrypto",
  "abi": [
    {
      "constant": true,
      "inputs": [],
      "name": "carOwner",
      "outputs": [
        {
          "name": "",
          "type": "address"
        }
      ],
      "payable": false,
      "stateMutability": "view",
      "type": "function",
      "signature": "0x0e89d7db"
    },
    {
      "constant": true,
      "inputs": [],
      "name": "extraTime",
      "outputs": [
        {
          "name": "",
          "type": "uint256"
        }
      ],
      "payable": false,
      "stateMutability": "view",
      "type": "function",
      "signature": "0x1800c0fe"
    },
    {
      "constant": true,
      "inputs": [],
      "name": "signPrefix",
      "outputs": [
        {
          "name": "",
          "type": "string"
        }
      ],
      "payable": false,
      "stateMutability": "view",
      "type": "function",
      "signature": "0x5af2800c"
    },
    {
      "constant": true,
      "inputs": [],
      "name": "ownerDeposit",
      "outputs": [
        {
          "name": "",
          "type": "uint256"
        }
      ],
      "payable": false,
      "stateMutability": "view",
      "type": "function",
      "signature": "0x7b1aa45f"
    },
    {
      "constant": true,
      "inputs": [],
      "name": "balanceToDistribute",
      "outputs": [
        {
          "name": "",
          "type": "uint256"
        }
      ],
      "payable": false,
      "stateMutability": "view",
      "type": "function",
      "signature": "0x8001d455"
    },
    {
      "constant": true,
      "inputs": [],
      "name": "currentDriverAddress",
      "outputs": [
        {
          "name": "",
          "type": "address"
        }
      ],
      "payable": false,
      "stateMutability": "view",
      "type": "function",
      "signature": "0xa71ce901"
    },
    {
      "constant": true,
      "inputs": [],
      "name": "ownerBalance",
      "outputs": [
        {
          "name": "",
          "type": "uint256"
        }
      ],
      "payable": false,
      "stateMutability": "view",
      "type": "function",
      "signature": "0xbedcf003"
    },
    {
      "constant": true,
      "inputs": [],
      "name": "accessToken",
      "outputs": [
        {
          "name": "",
          "type": "bytes"
        }
      ],
      "payable": false,
      "stateMutability": "view",
      "type": "function",
      "signature": "0xe243c5fb"
    },
    {
      "constant": true,
      "inputs": [],
      "name": "clientBalance",
      "outputs": [
        {
          "name": "",
          "type": "uint256"
        }
      ],
      "payable": false,
      "stateMutability": "view",
      "type": "function",
      "signature": "0xee148ba1"
    },
    {
      "constant": true,
      "inputs": [],
      "name": "clientDeposit",
      "outputs": [
        {
          "name": "",
          "type": "uint256"
        }
      ],
      "payable": false,
      "stateMutability": "view",
      "type": "function",
      "signature": "0xf07ff641"
    },
    {
      "inputs": [
        {
          "name": "_owner",
          "type": "address"
        }
      ],
      "payable": true,
      "stateMutability": "payable",
      "type": "constructor",
      "signature": "constructor"
    },
    {
      "anonymous": false,
      "inputs": [
        {
          "indexed": true,
          "name": "_currentDriverAddress",
          "type": "address"
        },
        {
          "indexed": false,
          "name": "_rentValue",
          "type": "uint256"
        },
        {
          "indexed": false,
          "name": "_rentStart",
          "type": "uint256"
        },
        {
          "indexed": false,
          "name": "rentEnd",
          "type": "uint256"
        }
      ],
      "name": "E_RentCar",
      "type": "event",
      "signature": "0xa280e1ed73e0a38a0a48f8def51c7a5dd4cea329c6457099447949e858b9d814"
    },
    {
      "anonymous": false,
      "inputs": [
        {
          "indexed": true,
          "name": "_currentDriverAddress",
          "type": "address"
        },
        {
          "indexed": false,
          "name": "_rentalEnd",
          "type": "uint256"
        },
        {
          "indexed": false,
          "name": "_endWithinPeriod",
          "type": "bool"
        }
      ],
      "name": "E_EndRentCar",
      "type": "event",
      "signature": "0xe82220aacc601b0a8a556e696c850b5157d182f2ad8dfe51b09f09d4cb078de1"
    },
    {
      "constant": true,
      "inputs": [
        {
          "name": "_customer",
          "type": "address"
        }
      ],
      "name": "prefixHash",
      "outputs": [
        {
          "name": "",
          "type": "bytes32"
        }
      ],
      "payable": false,
      "stateMutability": "view",
      "type": "function",
      "signature": "0xb89648c5"
    },
    {
      "constant": true,
      "inputs": [
        {
          "name": "_customer",
          "type": "address"
        }
      ],
      "name": "detailHash",
      "outputs": [
        {
          "name": "",
          "type": "bytes32"
        }
      ],
      "payable": false,
      "stateMutability": "view",
      "type": "function",
      "signature": "0xdeacdba8"
    },
    {
      "constant": true,
      "inputs": [
        {
          "name": "_customer",
          "type": "address"
        },
        {
          "name": "v",
          "type": "uint8"
        },
        {
          "name": "r",
          "type": "bytes32"
        },
        {
          "name": "s",
          "type": "bytes32"
        }
      ],
      "name": "isSignatureValid",
      "outputs": [
        {
          "name": "correct",
          "type": "bool"
        }
      ],
      "payable": false,
      "stateMutability": "view",
      "type": "function",
      "signature": "0x8e594c71"
    },
    {
      "constant": false,
      "inputs": [
        {
          "name": "bookingDetails",
          "type": "bytes"
        }
      ],
      "name": "sendEncryptedDetails",
      "outputs": [],
      "payable": false,
      "stateMutability": "nonpayable",
      "type": "function",
      "signature": "0x625dde25"
    },
    {
      "constant": false,
      "inputs": [
        {
          "name": "requiredDays",
          "type": "uint256"
        }
      ],
      "name": "setRequiredDays",
      "outputs": [],
      "payable": false,
      "stateMutability": "nonpayable",
      "type": "function",
      "signature": "0xf75a7103"
    },
    {
      "constant": true,
      "inputs": [
        {
          "name": "_customer",
          "type": "address"
        },
        {
          "name": "v",
          "type": "uint8"
        },
        {
          "name": "r",
          "type": "bytes32"
        },
        {
          "name": "s",
          "type": "bytes32"
        }
      ],
      "name": "isBookingValid",
      "outputs": [
        {
          "name": "correct",
          "type": "bool"
        }
      ],
      "payable": false,
      "stateMutability": "view",
      "type": "function",
      "signature": "0x33e8ed19"
    },
    {
      "constant": false,
      "inputs": [
        {
          "name": "_customer",
          "type": "address"
        },
        {
          "name": "v",
          "type": "uint8"
        },
        {
          "name": "r",
          "type": "bytes32"
        },
        {
          "name": "s",
          "type": "bytes32"
        },
        {
          "name": "v2",
          "type": "uint8"
        },
        {
          "name": "r2",
          "type": "bytes32"
        },
        {
          "name": "s2",
          "type": "bytes32"
        }
      ],
      "name": "rentCar",
      "outputs": [],
      "payable": true,
      "stateMutability": "payable",
      "type": "function",
      "signature": "0xb005b47f"
    },
    {
      "constant": false,
      "inputs": [
        {
          "name": "_user",
          "type": "address"
        }
      ],
      "name": "allowCarUsage",
      "outputs": [],
      "payable": false,
      "stateMutability": "nonpayable",
      "type": "function",
      "signature": "0x182f9ac7"
    },
    {
      "constant": false,
      "inputs": [
        {
          "name": "_user",
          "type": "address"
        }
      ],
      "name": "accessCar",
      "outputs": [],
      "payable": false,
      "stateMutability": "nonpayable",
      "type": "function",
      "signature": "0x5c11482e"
    },
    {
      "constant": false,
      "inputs": [
        {
          "name": "_user",
          "type": "address"
        }
      ],
      "name": "nonAccessWithdrawal",
      "outputs": [],
      "payable": false,
      "stateMutability": "nonpayable",
      "type": "function",
      "signature": "0x14c59401"
    },
    {
      "constant": false,
      "inputs": [
        {
          "name": "_user",
          "type": "address"
        }
      ],
      "name": "cancelBooking",
      "outputs": [],
      "payable": false,
      "stateMutability": "nonpayable",
      "type": "function",
      "signature": "0x82394694"
    },
    {
      "constant": false,
      "inputs": [
        {
          "name": "extraTijd",
          "type": "uint256"
        }
      ],
      "name": "setExtraTimeTaken",
      "outputs": [],
      "payable": false,
      "stateMutability": "nonpayable",
      "type": "function",
      "signature": "0x5ab8ab99"
    },
    {
      "constant": false,
      "inputs": [],
      "name": "endRentCar",
      "outputs": [],
      "payable": false,
      "stateMutability": "nonpayable",
      "type": "function",
      "signature": "0x57c9a6a7"
    },
    {
      "constant": false,
      "inputs": [],
      "name": "triggerDistributeEarnings",
      "outputs": [],
      "payable": false,
      "stateMutability": "nonpayable",
      "type": "function",
      "signature": "0x4cc9e1ac"
    },
    {
      "constant": false,
      "inputs": [
        {
          "name": "_user",
          "type": "address"
        }
      ],
      "name": "withdrawEarnings",
      "outputs": [],
      "payable": false,
      "stateMutability": "nonpayable",
      "type": "function",
      "signature": "0x3d4d8d4f"
    }
  ],
  "bytecode": "0x6080604052600060085560006009556000600a60006101000a81548160ff0219169083151502179055506000600a60016101000a81548160ff0219169083151502179055506000600a60026101000a81548160ff0219169083151502179055506000600a60036101000a81548160ff0219169083151502179055506000600b556000600c556040805190810160405280600d81526020017f5369676e6564426f6f6b696e670000000000000000000000000000000000000081525060109080519060200190620000d19291906200021c565b506000601160006101000a81548160ff0219169083151502179055506000601160016101000a81548160ff0219169083151502179055506000601160026101000a81548160ff02191690831515021790555060405160208062002381833981018060405260208110156200014457600080fd5b8101908080519060200190929190505050674563918244f40000341415156200016957fe5b806000806101000a81548173ffffffffffffffffffffffffffffffffffffffff021916908373ffffffffffffffffffffffffffffffffffffffff160217905550346005819055506002600f60006101000a81548160ff02191690836002811115620001d057fe5b02179055506000600f60016101000a81548160ff02191690836002811115620001f557fe5b02179055506001600a60006101000a81548160ff02191690831515021790555050620002cb565b828054600181600116156101000203166002900490600052602060002090601f016020900481019282601f106200025f57805160ff191683800117855562000290565b8280016001018555821562000290579182015b828111156200028f57825182559160200191906001019062000272565b5b5090506200029f9190620002a3565b5090565b620002c891905b80821115620002c4576000816000905550600101620002aa565b5090565b90565b6120a680620002db6000396000f3fe608060405260043610610149576000357c0100000000000000000000000000000000000000000000000000000000900463ffffffff1680630e89d7db1461014e57806314c59401146101a55780631800c0fe146101f6578063182f9ac71461022157806333e8ed19146102725780633d4d8d4f146102fc5780634cc9e1ac1461034d57806357c9a6a7146103645780635ab8ab991461037b5780635af2800c146103b65780635c11482e14610446578063625dde25146104975780637b1aa45f1461055f5780638001d4551461058a57806382394694146105b55780638e594c7114610606578063a71ce90114610690578063b005b47f146106e7578063b89648c51461076d578063bedcf003146107d2578063deacdba8146107fd578063e243c5fb14610862578063ee148ba1146108f2578063f07ff6411461091d578063f75a710314610948575b600080fd5b34801561015a57600080fd5b50610163610983565b604051808273ffffffffffffffffffffffffffffffffffffffff1673ffffffffffffffffffffffffffffffffffffffff16815260200191505060405180910390f35b3480156101b157600080fd5b506101f4600480360360208110156101c857600080fd5b81019080803573ffffffffffffffffffffffffffffffffffffffff1690602001909291905050506109a8565b005b34801561020257600080fd5b5061020b610a99565b6040518082815260200191505060405180910390f35b34801561022d57600080fd5b506102706004803603602081101561024457600080fd5b81019080803573ffffffffffffffffffffffffffffffffffffffff169060200190929190505050610a9f565b005b34801561027e57600080fd5b506102e26004803603608081101561029557600080fd5b81019080803573ffffffffffffffffffffffffffffffffffffffff169060200190929190803560ff1690602001909291908035906020019092919080359060200190929190505050610b30565b604051808215151515815260200191505060405180910390f35b34801561030857600080fd5b5061034b6004803603602081101561031f57600080fd5b81019080803573ffffffffffffffffffffffffffffffffffffffff169060200190929190505050610c05565b005b34801561035957600080fd5b50610362610e97565b005b34801561037057600080fd5b50610379610f30565b005b34801561038757600080fd5b506103b46004803603602081101561039e57600080fd5b8101908080359060200190929190505050611397565b005b3480156103c257600080fd5b506103cb6113bc565b6040518080602001828103825283818151815260200191508051906020019080838360005b8381101561040b5780820151818401526020810190506103f0565b50505050905090810190601f1680156104385780820380516001836020036101000a031916815260200191505b509250505060405180910390f35b34801561045257600080fd5b506104956004803603602081101561046957600080fd5b81019080803573ffffffffffffffffffffffffffffffffffffffff16906020019092919050505061145a565b005b3480156104a357600080fd5b5061055d600480360360208110156104ba57600080fd5b81019080803590602001906401000000008111156104d757600080fd5b8201836020820111156104e957600080fd5b8035906020019184600183028401116401000000008311171561050b57600080fd5b91908080601f016020809104026020016040519081016040528093929190818152602001838380828437600081840152601f19601f820116905080830192505050505050509192919290505050611507565b005b34801561056b57600080fd5b50610574611521565b6040518082815260200191505060405180910390f35b34801561059657600080fd5b5061059f611527565b6040518082815260200191505060405180910390f35b3480156105c157600080fd5b50610604600480360360208110156105d857600080fd5b81019080803573ffffffffffffffffffffffffffffffffffffffff16906020019092919050505061152d565b005b34801561061257600080fd5b506106766004803603608081101561062957600080fd5b81019080803573ffffffffffffffffffffffffffffffffffffffff169060200190929190803560ff16906020019092919080359060200190929190803590602001909291905050506119f4565b604051808215151515815260200191505060405180910390f35b34801561069c57600080fd5b506106a5611ac9565b604051808273ffffffffffffffffffffffffffffffffffffffff1673ffffffffffffffffffffffffffffffffffffffff16815260200191505060405180910390f35b61076b600480360360e08110156106fd57600080fd5b81019080803573ffffffffffffffffffffffffffffffffffffffff169060200190929190803560ff1690602001909291908035906020019092919080359060200190929190803560ff1690602001909291908035906020019092919080359060200190929190505050611aef565b005b34801561077957600080fd5b506107bc6004803603602081101561079057600080fd5b81019080803573ffffffffffffffffffffffffffffffffffffffff169060200190929190505050611cc3565b6040518082815260200191505060405180910390f35b3480156107de57600080fd5b506107e7611dd2565b6040518082815260200191505060405180910390f35b34801561080957600080fd5b5061084c6004803603602081101561082057600080fd5b81019080803573ffffffffffffffffffffffffffffffffffffffff169060200190929190505050611dd8565b6040518082815260200191505060405180910390f35b34801561086e57600080fd5b50610877611ee7565b6040518080602001828103825283818151815260200191508051906020019080838360005b838110156108b757808201518184015260208101905061089c565b50505050905090810190601f1680156108e45780820380516001836020036101000a031916815260200191505b509250505060405180910390f35b3480156108fe57600080fd5b50610907611f85565b6040518082815260200191505060405180910390f35b34801561092957600080fd5b50610932611f8b565b6040518082815260200191505060405180910390f35b34801561095457600080fd5b506109816004803603602081101561096b57600080fd5b8101908080359060200190929190505050611f91565b005b6000809054906101000a900473ffffffffffffffffffffffffffffffffffffffff1681565b600a60009054906101000a900460ff1615156109c057fe5b600160009054906101000a900473ffffffffffffffffffffffffffffffffffffffff1673ffffffffffffffffffffffffffffffffffffffff168173ffffffffffffffffffffffffffffffffffffffff16141515610a1957fe5b60001515601160019054906101000a900460ff161515141515610a3857fe5b600654600554016003819055503373ffffffffffffffffffffffffffffffffffffffff166108fc6003549081150290604051600060405180830381858888f19350505050158015610a8d573d6000803e3d6000fd5b50600060028190555050565b60045481565b600a60009054906101000a900460ff161515610ab757fe5b6000809054906101000a900473ffffffffffffffffffffffffffffffffffffffff1673ffffffffffffffffffffffffffffffffffffffff168173ffffffffffffffffffffffffffffffffffffffff16141515610b1257600080fd5b6001601160006101000a81548160ff02191690831515021790555050565b600080610b3c86611dd8565b9050600060018287878760405160008152602001604052604051808581526020018460ff1660ff1681526020018381526020018281526020019450505050506020604051602081039080840390855afa158015610b9d573d6000803e3d6000fd5b5050506020604051035190506000809054906101000a900473ffffffffffffffffffffffffffffffffffffffff1673ffffffffffffffffffffffffffffffffffffffff168173ffffffffffffffffffffffffffffffffffffffff161492505050949350505050565b600a60029054906101000a900460ff161515610c1d57fe5b600a60039054906101000a900460ff161515610c3557fe5b600a60019054906101000a900460ff161515610c4d57fe5b6000809054906101000a900473ffffffffffffffffffffffffffffffffffffffff1673ffffffffffffffffffffffffffffffffffffffff168173ffffffffffffffffffffffffffffffffffffffff161415610d50576000809054906101000a900473ffffffffffffffffffffffffffffffffffffffff1673ffffffffffffffffffffffffffffffffffffffff163373ffffffffffffffffffffffffffffffffffffffff16141515610cfa57fe5b3373ffffffffffffffffffffffffffffffffffffffff166108fc6002549081150290604051600060405180830381858888f19350505050158015610d42573d6000803e3d6000fd5b506000600281905550610e94565b600160009054906101000a900473ffffffffffffffffffffffffffffffffffffffff1673ffffffffffffffffffffffffffffffffffffffff168173ffffffffffffffffffffffffffffffffffffffff161415610e9357600160009054906101000a900473ffffffffffffffffffffffffffffffffffffffff1673ffffffffffffffffffffffffffffffffffffffff163373ffffffffffffffffffffffffffffffffffffffff16141515610dff57fe5b3373ffffffffffffffffffffffffffffffffffffffff166108fc6003549081150290604051600060405180830381858888f19350505050158015610e47573d6000803e3d6000fd5b506000600160006101000a81548173ffffffffffffffffffffffffffffffffffffffff021916908373ffffffffffffffffffffffffffffffffffffffff16021790555060006003819055505b5b50565b600a60009054906101000a900460ff161515610eaf57fe5b6000600754111515610ebd57fe5b60008090503373ffffffffffffffffffffffffffffffffffffffff166000809054906101000a900473ffffffffffffffffffffffffffffffffffffffff1673ffffffffffffffffffffffffffffffffffffffff161415610f1c57600190505b801515610f2557fe5b610f2d611f9b565b50565b600a60009054906101000a900460ff161515610f4857fe5b60016002811115610f5557fe5b600f60019054906101000a900460ff166002811115610f7057fe5b141515610f7957fe5b60016002811115610f8657fe5b600f60009054906101000a900460ff166002811115610fa157fe5b141515610faa57fe5b6730927f74c9de0000674563918244f400000360078190555060011515601160029054906101000a900460ff161515148015610feb57506004805460095401105b1561100d576706f05b59d3b20000600454026007600082825401925050819055505b60011515601160029054906101000a900460ff1615151480156110365750600480546009540110155b1561120d576000809054906101000a900473ffffffffffffffffffffffffffffffffffffffff1673ffffffffffffffffffffffffffffffffffffffff163373ffffffffffffffffffffffffffffffffffffffff1614151561109357fe5b600160009054906101000a900473ffffffffffffffffffffffffffffffffffffffff1673ffffffffffffffffffffffffffffffffffffffff167fe82220aacc601b0a8a556e696c850b5157d182f2ad8dfe51b09f09d4cb078de142600060405180838152602001821515151581526020019250505060405180910390a26000600381905550600554600654016002819055503373ffffffffffffffffffffffffffffffffffffffff166108fc6002549081150290604051600060405180830381858888f1935050505015801561116d573d6000803e3d6000fd5b506000600160006101000a81548173ffffffffffffffffffffffffffffffffffffffff021916908373ffffffffffffffffffffffffffffffffffffffff1602179055506000600f60016101000a81548160ff021916908360028111156111cf57fe5b02179055506002600f60006101000a81548160ff021916908360028111156111f357fe5b021790555060006008819055506000600981905550611395565b600160009054906101000a900473ffffffffffffffffffffffffffffffffffffffff1673ffffffffffffffffffffffffffffffffffffffff163373ffffffffffffffffffffffffffffffffffffffff1614151561126657fe5b600160009054906101000a900473ffffffffffffffffffffffffffffffffffffffff1673ffffffffffffffffffffffffffffffffffffffff167fe82220aacc601b0a8a556e696c850b5157d182f2ad8dfe51b09f09d4cb078de142600160405180838152602001821515151581526020019250505060405180910390a26000600f60016101000a81548160ff0219169083600281111561130257fe5b02179055506002600f60006101000a81548160ff0219169083600281111561132657fe5b0217905550600060088190555060006009819055506001600a60036101000a81548160ff0219169083151502179055506001600a60026101000a81548160ff0219169083151502179055506001600a60016101000a81548160ff021916908315150217905550611394611f9b565b5b565b806004819055506001601160026101000a81548160ff02191690831515021790555050565b60108054600181600116156101000203166002900480601f0160208091040260200160405190810160405280929190818152602001828054600181600116156101000203166002900480156114525780601f1061142757610100808354040283529160200191611452565b820191906000526020600020905b81548152906001019060200180831161143557829003601f168201915b505050505081565b600a60009054906101000a900460ff16151561147257fe5b600160009054906101000a900473ffffffffffffffffffffffffffffffffffffffff1673ffffffffffffffffffffffffffffffffffffffff168173ffffffffffffffffffffffffffffffffffffffff161415156114ce57600080fd5b601160009054906101000a900460ff1615156114e957600080fd5b6001601160016101000a81548160ff02191690831515021790555050565b80600e908051906020019061151d929190611fd5565b5050565b60055481565b60075481565b600a60009054906101000a900460ff16151561154557fe5b6000809054906101000a900473ffffffffffffffffffffffffffffffffffffffff1673ffffffffffffffffffffffffffffffffffffffff168173ffffffffffffffffffffffffffffffffffffffff161480156115b4575060001515601160009054906101000a900460ff161515145b15611671576000600f60016101000a81548160ff021916908360028111156115d857fe5b02179055506002600f60006101000a81548160ff021916908360028111156115fc57fe5b0217905550600160009054906101000a900473ffffffffffffffffffffffffffffffffffffffff1673ffffffffffffffffffffffffffffffffffffffff166108fc6006549081150290604051600060405180830381858888f1935050505015801561166b573d6000803e3d6000fd5b506119f1565b600160009054906101000a900473ffffffffffffffffffffffffffffffffffffffff1673ffffffffffffffffffffffffffffffffffffffff168173ffffffffffffffffffffffffffffffffffffffff161480156116e1575060001515601160019054906101000a900460ff161515145b1561177c576000600f60016101000a81548160ff0219169083600281111561170557fe5b02179055506002600f60006101000a81548160ff0219169083600281111561172957fe5b02179055503373ffffffffffffffffffffffffffffffffffffffff166108fc6006549081150290604051600060405180830381858888f19350505050158015611776573d6000803e3d6000fd5b506119f0565b600160009054906101000a900473ffffffffffffffffffffffffffffffffffffffff1673ffffffffffffffffffffffffffffffffffffffff168173ffffffffffffffffffffffffffffffffffffffff161480156117ec575060011515601160019054906101000a900460ff161515145b156118a9576000600f60016101000a81548160ff0219169083600281111561181057fe5b02179055506002600f60006101000a81548160ff0219169083600281111561183457fe5b02179055503373ffffffffffffffffffffffffffffffffffffffff166108fc6706f05b59d3b20000600654039081150290604051600060405180830381858888f1935050505015801561188b573d6000803e3d6000fd5b506706f05b59d3b200006005600082825401925050819055506119ef565b6000809054906101000a900473ffffffffffffffffffffffffffffffffffffffff1673ffffffffffffffffffffffffffffffffffffffff168173ffffffffffffffffffffffffffffffffffffffff16148015611918575060011515601160009054906101000a900460ff161515145b156119ee576000600f60016101000a81548160ff0219169083600281111561193c57fe5b02179055506002600f60006101000a81548160ff0219169083600281111561196057fe5b02179055506706f05b59d3b2000060055403600581905550600160009054906101000a900473ffffffffffffffffffffffffffffffffffffffff1673ffffffffffffffffffffffffffffffffffffffff166108fc6706f05b59d3b20000600654019081150290604051600060405180830381858888f193505050501580156119ec573d6000803e3d6000fd5b505b5b5b5b50565b600080611a0086611cc3565b9050600060018287878760405160008152602001604052604051808581526020018460ff1660ff1681526020018381526020018281526020019450505050506020604051602081039080840390855afa158015611a61573d6000803e3d6000fd5b5050506020604051035190506000809054906101000a900473ffffffffffffffffffffffffffffffffffffffff1673ffffffffffffffffffffffffffffffffffffffff168173ffffffffffffffffffffffffffffffffffffffff161492505050949350505050565b600160009054906101000a900473ffffffffffffffffffffffffffffffffffffffff1681565b600a60009054906101000a900460ff161515611b0757fe5b60006002811115611b1457fe5b600f60019054906101000a900460ff166002811115611b2f57fe5b141515611b3b57600080fd5b600280811115611b4757fe5b600f60009054906101000a900460ff166002811115611b6257fe5b141515611b6e57600080fd5b60011515611b7e888888886119f4565b1515141515611b8c57600080fd5b674563918244f4000034141515611b9f57fe5b86600160006101000a81548173ffffffffffffffffffffffffffffffffffffffff021916908373ffffffffffffffffffffffffffffffffffffffff1602179055506001600f60006101000a81548160ff02191690836002811115611bff57fe5b02179055506001600f60016101000a81548160ff02191690836002811115611c2357fe5b02179055504260088190555034600681905550600160009054906101000a900473ffffffffffffffffffffffffffffffffffffffff1673ffffffffffffffffffffffffffffffffffffffff167fa280e1ed73e0a38a0a48f8def51c7a5dd4cea329c6457099447949e858b9d8143460085460095460405180848152602001838152602001828152602001935050505060405180910390a250505050505050565b600080601030846040516020018084805460018160011615610100020316600290048015611d285780601f10611d06576101008083540402835291820191611d28565b820191906000526020600020905b815481529060010190602001808311611d14575b50508373ffffffffffffffffffffffffffffffffffffffff1673ffffffffffffffffffffffffffffffffffffffff166c010000000000000000000000000281526014018273ffffffffffffffffffffffffffffffffffffffff1673ffffffffffffffffffffffffffffffffffffffff166c01000000000000000000000000028152601401935050505060405160208183030381529060405280519060200120905080915050919050565b60025481565b600080600e30846040516020018084805460018160011615610100020316600290048015611e3d5780601f10611e1b576101008083540402835291820191611e3d565b820191906000526020600020905b815481529060010190602001808311611e29575b50508373ffffffffffffffffffffffffffffffffffffffff1673ffffffffffffffffffffffffffffffffffffffff166c010000000000000000000000000281526014018273ffffffffffffffffffffffffffffffffffffffff1673ffffffffffffffffffffffffffffffffffffffff166c01000000000000000000000000028152601401935050505060405160208183030381529060405280519060200120905080915050919050565b600e8054600181600116156101000203166002900480601f016020809104026020016040519081016040528092919081815260200182805460018160011615610100020316600290048015611f7d5780601f10611f5257610100808354040283529160200191611f7d565b820191906000526020600020905b815481529060010190602001808311611f6057829003601f168201915b505050505081565b60035481565b60065481565b8060098190555050565b600a60009054906101000a900460ff161515611fb357fe5b60075460055401600281905550600754674563918244f4000003600381905550565b828054600181600116156101000203166002900490600052602060002090601f016020900481019282601f1061201657805160ff1916838001178555612044565b82800160010185558215612044579182015b82811115612043578251825591602001919060010190612028565b5b5090506120519190612055565b5090565b61207791905b8082111561207357600081600090555060010161205b565b5090565b9056fea165627a7a7230582044abd114344b2dcc134b91705091484f6ebf9b064e44cc4e34e80fca2514b6730029",
  "source": "pragma solidity ^0.5.0;\n\ncontract SmartContractCrypto{\n    address payable public carOwner;\n    address payable public currentDriverAddress;\n    uint public ownerBalance;\n    uint public clientBalance; \n    uint public extraTime; \n    uint public ownerDeposit;\n    uint public clientDeposit;\n    uint public balanceToDistribute;\n    uint driveStartTime = 0;\n    uint driveRequiredEndTime = 0;\n    uint constant RATE = 5 ether; \n    bool carIsReady = false;\n    bool carFree = false;\n    bool ownerReady = false;\n    bool clientReady = false;\n    uint pickLocation = 0;\n    uint dropLocation = 0;\n    uint timestamp;\n    bytes public accessToken;\n    \n    DriverInformation currentDriverInfo;\n    CarStatus currentCarStatus;\n    \n    enum DriverInformation{\n        Owner,\n        Customer,\n        None\n    }\n    \n    enum CarStatus{\n        Idle,\n        Busy,\n        Unavailable\n    }\n    \n    modifier carReady{\n        assert(carIsReady);\n        _;\n    }\n    \n    modifier clientAgrees{\n        assert(clientReady);\n        _;\n    }\n    \n    modifier ownerAgrees{\n        assert(ownerReady);\n        _;\n    }\n    \n    modifier tripEnded{\n        assert(carFree);\n        _;\n    }\n    \n    event E_RentCar(address indexed _currentDriverAddress, uint _rentValue, uint _rentStart, uint rentEnd);\n    event E_EndRentCar(address indexed _currentDriverAddress, uint _rentalEnd, bool _endWithinPeriod);\n    \n    constructor(address payable _owner) payable public{\n        assert(msg.value == 5 ether);\n        carOwner = _owner;\n        ownerDeposit = msg.value;\n        currentDriverInfo = DriverInformation.None;\n        currentCarStatus = CarStatus.Idle;\n        carIsReady = true;\n    }\n    \n    /**to ensure no replication of signature**/\n    \n    string public signPrefix = \"SignedBooking\";\n    \n    //keccak256 is a hash function ethereum uses. prefixHash is used to generate a prefixhash of the address\n    \n    function prefixHash(address payable _customer) public view returns(bytes32) {\n        bytes32 hash = keccak256(abi.encodePacked(signPrefix,\n        address(this), _customer));\n        return hash;\n    }\n    \n    function detailHash(address payable _customer) public view returns(bytes32) {\n        bytes32 hash = keccak256(abi.encodePacked(accessToken,\n        address(this), _customer));\n        return hash;\n    }\n    \n    function isSignatureValid(address payable _customer, uint8 v, bytes32 r, bytes32 s) view public returns(bool correct) {\n        bytes32 mustBeSigned = prefixHash(_customer);\n        address signer = ecrecover(mustBeSigned, v, r, s);\n        \n        return(signer == carOwner);\n    }\n    \n    function sendEncryptedDetails(bytes memory bookingDetails) public{\n        accessToken = bookingDetails;\n    }\n    \n    \n    \n    function setRequiredDays(uint requiredDays) public{\n        driveRequiredEndTime = requiredDays;\n    }\n    \n     function isBookingValid(address payable _customer, uint8 v, bytes32 r, bytes32 s) view public returns(bool correct) {\n        bytes32 mustBeSigned = detailHash(_customer);\n        address signer = ecrecover(mustBeSigned, v, r, s);\n        \n        return(signer == carOwner);\n    }\n    \n    function rentCar(address payable _customer, uint8 v, bytes32 r, bytes32 s, uint8 v2, bytes32 r2, bytes32 s2) public carReady payable{\n            require(currentCarStatus==CarStatus.Idle);\n            require(currentDriverInfo == DriverInformation.None);\n            require(isSignatureValid(_customer, v, r, s) == true);\n            /**require(isBookingValid(_customer,v2,r2,s2) == true);*/\n            assert(msg.value == RATE);\n            currentDriverAddress = _customer;\n            currentDriverInfo = DriverInformation.Customer;\n            currentCarStatus = CarStatus.Busy;\n            driveStartTime = now;\n            clientDeposit = msg.value;\n            emit E_RentCar(currentDriverAddress, msg.value, driveStartTime, driveRequiredEndTime);\n    }\n    \n    bool allowCarUse = false;\n    \n    function allowCarUsage(address _user) public carReady{\n        require(_user == carOwner);\n        allowCarUse = true;\n    }\n    \n    bool canAccess = false;\n    \n    function accessCar(address _user) public carReady{\n            require(_user == currentDriverAddress);\n            require(allowCarUse);\n            canAccess = true;\n    }\n    \n    function nonAccessWithdrawal(address _user) public carReady{\n            assert(_user == currentDriverAddress);\n            assert(canAccess==false);\n            clientBalance = ownerDeposit + clientDeposit;\n            msg.sender.transfer(clientBalance);\n            ownerBalance = 0;\n        \n    }\n    \n    function cancelBooking(address _user) public carReady{\n        if(_user == carOwner && allowCarUse == false){\n            currentCarStatus = CarStatus.Idle;\n            currentDriverInfo = DriverInformation.None;\n            //msg.sender.transfer(ownerDeposit);\n            currentDriverAddress.transfer(clientDeposit);\n        }\n        else if(_user == currentDriverAddress && canAccess == false){\n            currentCarStatus = CarStatus.Idle;\n            currentDriverInfo = DriverInformation.None;\n            msg.sender.transfer(clientDeposit);\n            //carOwner.transfer(ownerDeposit);\n        }\n        else if(_user == currentDriverAddress && canAccess == true){\n            currentCarStatus = CarStatus.Idle;\n            currentDriverInfo = DriverInformation.None;\n            msg.sender.transfer(clientDeposit - 500000000000000000);\n            ownerDeposit+=500000000000000000;\n        }\n        else if(_user==carOwner && allowCarUse == true){\n            currentCarStatus = CarStatus.Idle;\n            currentDriverInfo = DriverInformation.None;\n            ownerDeposit = ownerDeposit - 500000000000000000;\n            currentDriverAddress.transfer(clientDeposit + 500000000000000000);\n        }\n        \n    }\n    \n    bool extraTimeTaken = false;\n    \n    function setExtraTimeTaken(uint extraTijd) public {\n        extraTime = extraTijd;\n        extraTimeTaken = true;\n    }\n    \n    function endRentCar() public carReady{\n        assert(currentCarStatus == CarStatus.Busy);\n        assert(currentDriverInfo == DriverInformation.Customer);\n        \n        balanceToDistribute = RATE - 3.5 ether;\n        \n        if(extraTimeTaken==true && (driveRequiredEndTime + extraTime) < 4){\n            balanceToDistribute += extraTime * 500000000000000000; //0.5 ether for each extra day\n        }\n        \n        if(extraTimeTaken==true && (driveRequiredEndTime + extraTime) >= 4){\n           assert(msg.sender == carOwner);\n           emit E_EndRentCar(currentDriverAddress, now, false);\n           clientBalance = 0 ether;\n           ownerBalance = clientDeposit + ownerDeposit;\n           msg.sender.transfer(ownerBalance);\n           currentDriverAddress = address(0);\n           currentCarStatus = CarStatus.Idle;\n           currentDriverInfo = DriverInformation.None;\n           driveStartTime = 0;\n           driveRequiredEndTime = 0;\n        }\n        else\n        {\n            assert(msg.sender == currentDriverAddress);\n            emit E_EndRentCar(currentDriverAddress, now, true);\n        \n            currentCarStatus = CarStatus.Idle;\n            currentDriverInfo = DriverInformation.None;\n            driveStartTime = 0;\n            driveRequiredEndTime = 0;\n            clientReady = true;\n            ownerReady = true;\n            carFree = true;\n            distributeEarnings();\n        }\n        \n    }\n    \n     function distributeEarnings() internal carReady{\n        ownerBalance = ownerDeposit + balanceToDistribute;\n        clientBalance = 5 ether - balanceToDistribute;\n        \n    }\n    \n    function triggerDistributeEarnings() public carReady{\n        assert(balanceToDistribute > 0);\n        bool isOwner = false;\n        if(carOwner == msg.sender){\n            isOwner=true;\n        }\n        assert(isOwner);\n        distributeEarnings();\n    }\n    \n    function withdrawEarnings(address _user) public ownerAgrees clientAgrees tripEnded{\n        if(_user == carOwner){\n        assert(msg.sender == carOwner);\n        msg.sender.transfer(ownerBalance);\n        ownerBalance = 0;\n        }\n        else if(_user == currentDriverAddress){\n            assert(msg.sender == currentDriverAddress);\n            msg.sender.transfer(clientBalance);\n            currentDriverAddress = address(0);\n            clientBalance = 0;\n        }\n        \n    }\n    \n    \n}",
  "sourcePath": "C:/Users/Akash/Sc2Share/contracts/SmartContractCrypto.sol",
  "compiler": {
    "name": "solc",
    "version": "0.5.0+commit.1d4f565a.Emscripten.clang"
  },
  "schemaVersion": "3.0.1",
  "updatedAt": "2019-02-20T20:18:59.275Z",
  "devdoc": {
    "methods": {}
  },
  "userdoc": {
    "methods": {}
  }
}